:100000000C9434000C9451000C9451000C94510049
:100010000C9451000C9451000C9451000C9451001C
:100020000C9451000C9451000C9451000C9451000C
:100030000C9451000C9451000C9451000C945100FC
:100040000C9451000C9451000C9451000C945100EC
:100050000C9451000C9451000C9451000C945100DC
:100060000C9451000C94510011241FBECFEFD8E026
:10007000DEBFCDBF11E0A0E0B1E0EEE2F1E002C0F2
:1000800005900D92A031B107D9F721E0A0E1B1E0D0
:1000900001C01D92A731B207E1F70E9456000C94EF
:1000A00095000C940000862B8095089585E084B916
:1000B0008EEF8AB910921401E0E08E2F8695869516
:1000C0008695809313019E2F969596959093120195
:1000D0002E2F269520931101E0931001892B922F4A
:1000E0009E2B282F29232093160120931501F0E041
:1000F000E050FF4F80818BB980911601880F880FE7
:1001000090911501892B85B92FEF89E698E121504F
:1001100080409040E1F700C00000E0911401EF5FE3
:0E012000E0931401E03148F2C5CFF894FFCF10
:10012E00029E240C9848401E000810C06284607025
:00000001FF
